:020000022000DC
:106000000000012019620200016202000362020026
:10601000056202000762020009620200000000003F
:106020000000000000000000000000000B62020001
:106030000D620200000000000F6202001162020007
:1060400009C00200136202006DCD0200136202005B
:10605000136202001362020069CC020013620200A4
:106060001362020013620200136202001362020054
:106070001362020013620200136202001362020044
:106080001362020041060300136202001362020061
:10609000136202001362020049330300136202001C
:1060A0001362020013620200136202001362020014
:1060B00013620200136202000000000000000000F2
:1060C00013620200136202001362020013620200F4
:1060D000136202001362020013620200000000005B
:1060E00000000000000000000000000000000000B0
:1060F00000000000000000000000000000000000A0
:10610000000000000000000000000000000000008F
:10611000000000000000000000000000000000007F
:10612000000000000000000000000000000000006F
:10613000000000000000000000000000000000005F
:10614000000000000000000000000000000000004F
:10615000000000000000000000000000000000003F
:10616000000000000000000000000000000000002F
:10617000000000000000000000000000000000001F
:10618000000000000000000000000000000000000F
:1061900000000000000000000000000000000000FF
:1061A00000000000000000000000000000000000EF
:1061B00000000000000000000000000000000000DF
:1061C00000000000000000000000000000000000CF
:1061D00000000000000000000000000000000000BF
:1061E00000000000000000000000000000000000AF
:1061F000000000000000000000000000000000009F
:10620000FEE7FEE7FEE7FEE7FEE7FEE7FEE7FEE766
:10621000FEE7FEE700F002B8FFF7FCBF0F484FF0C3
:106220000701884385460E4880470E48016841F4BF
:1062300070010160BFF34F8FBFF36F8F00F01AB88A
:1062400009480A490A4A884207D0521A05D00378F9
:1062500001300B700131013AF9D170470000012083
:10626000ED86020088ED00E0FC420300D82A002001
:10627000D82A0020354936480A1A02D0072291430D
:106280008D46344934480A1A06D00722914381F3D7
:106290000988022282F3148830483149314A00F0DB
:1062A00044F831483149324A00F03FF83148324928
:1062B000324A00F03AF832483249334A00F035F8B1
:1062C00032483349334A00F030F833483349344ACE
:1062D00000F02BF833483449344A00F026F83448AB
:1062E0003449002200F02CF833483449002200F0F1
:1062F00027F833483349091A082902DB00220260D3
:106300004160314A90471F481F49884205D00268C2
:10631000043003B4904703BCF7E700208646EC4600
:1063200000200021294A9047FEE7884207D0521AF0
:1063300005D0037801300B700131013AF9D1704773
:10634000884202D002700130FAE770470000012055
:1063500000E0002000000120000001205C5B030041
:10636000D82A00202C2C0020D0630200D063020029
:10637000F84103005C5B0300D82A0020D82A0020E3
:10638000FC420300FC420300FC420300FC42030009
:10639000FC420300FC420300FC420300FC420300F9
:1063A0005C5B0300B05C03002C2C00202C2C002034
:1063B0002C2C0020DC3E0020DC3E0020DC3E0020B7
:1063C000DC3E0020DC5E002041620200A96F02007A
:1063D00076DF704700BF18467ADF704700BF184667
:1063E0007CDF704700BF18467FDF704700BF18464C
:1063F0008FDF704700BF1846B1DF704700BF1846F7
:1064000033DF704700BF184600B583B003460091E4
:10641000ADF80630BDF80630009A1946034808F07A
:10642000C7FC00BF03B05DF804FB00BFEFBEADDEEC
:1064300000B583B009F018F90190094A0121094813
:1064400009F050F9019B0093009B002B04D0064AF1
:106450009121009808F0ACFC00BF03B05DF804FB8C
:10646000016F0200FC4203000043030000B587B047
:106470009DF80030012262F303038DF800309DF88F
:106480000030012262F307138DF800301D480DF033
:1064900064FB03469AB26B461A491846FFF7A0FF01
:1064A0000590059B0493049B002B04D0164AA4215D
:1064B000049808F07DFC01AB0822002118460DF07D
:1064C000F7FA1023ADF804303C23ADF80630002372
:1064D000ADF808304FF4C873ADF80A3001AB184678
:1064E000FFF77AFF0590059B0393039B002B04D0D5
:1064F000054AAE21039808F05BFC00BF07B05DF8C9
:1065000004FB00BF384303000043030000B583B021
:106510000190044ABB21019808F04AFC00BF03B077
:106520005DF804FB0043030000B587B00190019BB8
:106530001B78002B43D1002305932AE0019B1A69A5
:10654000059B13441B78184609F0AAFB0490049B92
:10655000002B18D0049B112B15D01B4A1B4BD31AB0
:10656000DB081B0443F00103049A194918460BF099
:106570006BFF049B0393039B002B04D0154AD92186
:10658000039808F015FC049B112BD7D0059B013311
:106590000593019B9B8A1A46059B9342CED3019B90
:1065A0001A69019B9B8A013B13441B780D2B06D172
:1065B00000BF0A2009F074FB0346112BF9D000BF7D
:1065C00007B05DF804FB00BF944203006C42030077
:1065D000404303000043030000B587B0002301934C
:1065E000164B019301AB1946154804F027FE0590A0
:1065F000059B0493049B002B04D0124AF3210498BA
:1066000008F0D6FB02AB0422002118460DF050FA28
:106610000D4B029302AB19460C4805F055F8059056
:10662000059B0393039B002B04D0064AFB21039890
:1066300008F0BEFB00BF07B05DF804FB0D6502006B
:10664000442C00200043030029650200E02A0020BA
:1066500000B585B00190019B1B78002B11D10B4B2D
:106660001B883B211846FFF7B3FE0390039B029360
:10667000029B002B05D0064A40F21111029808F047
:1066800097FB00BF05B05DF804FB00BF202B002086
:106690000043030000B583B00190054A4FF48E71AA
:1066A000019808F085FB00BF03B05DF804FB00BF54
:1066B0000043030000B58BB001AB1C22002118463B
:1066C0000DF0F6F9002301934FF4A03302934FF439
:1066D000F023039303238DF810300023ADF812301C
:1066E00000238DF814300C4B06930C4B079301AB31
:1066F000184603F041FD0990099B0893089B002B65
:1067000005D0074A40F23311089808F051FB00BF4A
:106710000BB05DF804FB00BF5166020095660200F5
:106720000043030000B585B0002001F0C1FA0390DA
:10673000039B0293029B002B05D0134A4FF49F71D9
:10674000029808F035FB01F03CFC0390039B019399
:10675000019B002B05D00C4A4FF4A171019808F061
:1067600027FBFFF74DFE0390039B0093009B002B3C
:1067700005D0054A4FF4A371009808F019FB00BF3B
:1067800005B05DF804FB00BF0043030000B585B011
:1067900003468DF807309DF80730002B11D0032BEE
:1067A00012D1022001F084FA0390039B0293029B12
:1067B000002B0BD0084A4FF4AC71029808F0F8FA9D
:1067C00004E0FFF7AFFF02E000BF00E000BF00BF42
:1067D00005B05DF804FB00BF0043030000B58DB0B9
:1067E00001900091019B1B88562B00F0D480562B02
:1067F00000F3E480522B00F0A780522B00F3DE80E0
:10680000212B2DDC102BC0F2D980103B112B00F274
:10681000D58001A252F823F069680200CD68020019
:10682000BD69020021690200BD690200BD69020064
:10683000BD690200BD690200BD690200BD690200B8
:10684000BD690200BD690200BD690200BD690200A8
:10685000BD690200BD690200BD690200ED68020069
:106860003B2B00F08580A9E05D4A5E4BD31ADB0824
:106870001B0443F003035C4918460BF0D7FD0720C7
:1068800001F016FA0B900B9B0593059B002B05D08E
:10689000564A40F27111059808F08AFA019B9A88CD
:1068A000534B1A80524B1B881946524804F0E8FC9F
:1068B0000B900B9B0493049B002B00F081804B4AB0
:1068C0004FF4BA71049808F073FA79E0444A454BE2
:1068D000D31ADB081B0443F00303474918460BF0A7
:1068E000A5FD434B4FF6FF721A8074E000238DF82C
:1068F0000C3000238DF80D30019B9B8803AA1146B4
:106900001846FFF775FD0B900B9B0793079B002B19
:1069100058D0364A4FF4C371079808F049FA51E04D
:10692000334B1888002300228521FFF75DFD0B9073
:106930000B9B0693069B002B46D02C4A4FF4C67146
:10694000069808F035FA3FE0294B1888002300220A
:106950000021FFF751FD0B900B9B0993099B002B26
:1069600034D0224A4FF4C971099808F021FA2DE079
:10697000019B9B8813211846FFF72AFD0B900B9B68
:106980000893089B002B23D0184A40F299110898CD
:1069900008F00EFA1CE0019B9B8813211846FFF7B4
:1069A00017FD0B900B9B0A930A9B002B12D00F4AEA
:1069B0004FF4D0710A9808F0FBF90BE000BF0AE031
:1069C00000BF08E000BF06E000BF04E000BF02E037
:1069D00000BF00E000BF00BF0DB05DF804FB00BFCA
:1069E000944203006C4203006C4303000043030025
:1069F000202B0020442C00207843030000B587B0F2
:106A00000CF020FC0590059B0493049B002B05D003
:106A1000164A40F2B311049808F0CAF90023019312
:106A200001AB194601200CF0C5FC0590059B0393B2
:106A3000039B002B05D00D4A40F2B911039808F0D2
:106A4000B7F901AB18460CF0D3FD0590059B0293F6
:106A5000029B002B05D0054A40F2BD11029808F0B8
:106A6000A7F900BF07B05DF804FB00BF00430300B7
:106A700000B583B001900091009B5A88114B1B8890
:106A80009A421AD1009B1B8840F67722934214D178
:106A9000009B9B88033B9AB20B4B1A800B4A0C4B12
:106AA000D31ADB081B0443F00300074B1B881A466C
:106AB000054B1B8807490BF0D8FC00BF03B05DF8FD
:106AC00004FB00BF202B0020222B00209442030057
:106AD0006C4203008843030000B585B01149124899
:106AE00004F0ACFA0390039B0293029B002B05D0A9
:106AF0000E4A4FF4EC71029808F05AF9F7210A484F
:106B000004F0C7FA0390039B0193019B002B05D06F
:106B1000064A40F2DB11019808F04AF900BF05B0BF
:106B20005DF804FB716A0200302C00200043030072
:106B300000B587B003468DF807309DF807300A2B63
:106B400006D00A2B36DC042B05D0072B19D031E0F8
:106B5000FFF7E8FD33E01C4B1B8813211846FFF7B5
:106B600037FC0590059B082B26D0059B0393039BC0
:106B7000002B21D0154A4FF4F871039808F018F94A
:106B80001AE0114B1B884FF6FF72934216D1104842
:106B900003F073F90590059B082B0FD0059B049318
:106BA000049B002B0AD0094A4FF4FD71049808F0A9
:106BB000FFF803E000BF02E000BF00E000BF00BF3D
:106BC00007B05DF804FB00BF202B0020004303004A
:106BD000502C002000B587B00190019B1B78022B40
:106BE00056D0022B66DC002B02D0012B59D061E07D
:106BF000344B1B781A46344B1344184609F016F8E8
:106C0000304B1B780133DAB22E4B1A702D4B1B78A8
:106C1000013B2D4AD35C0A2B0DD02A4B1B78013B3C
:106C2000294AD35C0D2B06D0264B1B789AB2274BF2
:106C30001B889A4240D3234B1B78012B24D9214B2C
:106C40001B789BB2ADF80E30214B1B880DF10E0264
:106C50001D49204804F0DEFD0590059B082B10D04F
:106C6000059B132B0DD0059B052B0AD0059B049388
:106C7000049B002B05D0184A40F22A21049808F002
:106C800097F8059B132BDAD00E4B00221A7013E0F5
:106C9000019B5B68104A4FF40D71184608F088F8A4
:106CA0000BE0019B5B680C4A4FF40E71184608F02C
:106CB0007FF802E000BF00E000BF00BF07B05DF852
:106CC00004FB00BF8430002088300020222B0020ED
:106CD000202B0020E02A00200043030030B58DB0B7
:106CE000134B04AC1D460FCD0FC495E8030084E898
:106CF0000300104B00934FF4807301930E4B0293EB
:106D00004FF480730393694604A807230B4A08F0E5
:106D1000FDFE0B900B9B0A930A9B002B05D0084AA3
:106D200040F25D210A9808F043F800BF0DB030BD75
:106D3000A44303007C3100207C320020D56B02008C
:106D40000043030000B5AFB001ABAC2200211846F0
:106D50000CF0AEFE02238DF8043001238DF80630CE
:106D600005238DF807300123ADF85030124B1593F1
:106D700001238DF880304023239344F25063249301
:106D80000E4B2A9301AB19460D4802F05BFE2D9085
:106D90002D9B2C932C9B002B05D00A4A4FF41E717F
:106DA0002C9808F005F80121054802F03EFE00BFCE
:106DB0002FB05DF804FB00BF242B00208D6702007C
:106DC000502C00200043030000B587B00190174904
:106DD000032000F087FF0590059B0493049B002B84
:106DE00005D0134A40F28721049807F0E1FF0DF126
:106DF0000B031946002001F047F90590059B03930A
:106E0000039B002B05D00A4A40F28A21039807F021
:106E1000CFFF9DF80B30022B0CBF01230023DAB209
:106E2000019B1A7000BF07B05DF804FB316B0200D4
:106E30000043030000B583B04FF4804100200BF005
:106E40001DF80190019B0093009B002B05D0064A82
:106E500040F29521009807F0ABFF0AF0A5FF00BFB4
:106E600003B05DF804FB00BF0043030000B583B02E
:106E70000AF0BEFC0190019B0093009B002B05D003
:106E8000044A40F2A121009807F092FF00BF03B02E
:106E90005DF804FB0043030008B50BF023FB034639
:106EA00083F00103DBB2002B01D00AF0B7FC00BF76
:106EB00008BD000000B583B00321094802F09AFE26
:106EC0000190019B0093009B002B05D0054A40F2E6
:106ED000B721009807F06CFF00BF03B05DF804FB1A
:106EE000502C00200043030008B5044B00224FF44F
:106EF0008041184608F030FC00BF08BD002B002080
:106F000000B587B001900123ADF80C30214B1B7800
:106F1000002B09D031238DF80F301E4B00221A7040
:106F20001D4B00221A600EE030238DF80F301A4BF3
:106F30001B680133184A1360174B1B68032B02D9D7
:106F4000144B01221A70154B1B884FF6FF729342A7
:106F50001CD0124B1B8803AA0DF10F01104804F03E
:106F600059FC0590059B082B10D0059B132B0DD0C9
:106F7000059B052B0AD0059B0493049B002B05D091
:106F8000084A40F2DF21049807F012FF00BF07B063
:106F90005DF804FB282B00207C330020202B0020F0
:106FA000E02A00200043030000B583B0FFF796FEFF
:106FB000FFF740FFFFF73CFA0DF107031846FFF714
:106FC00003FFFFF753FFFFF719FDFFF74FFAFFF736
:106FD00083FDFFF701FBFFF7B5FEFFF76BFB0A48E8
:106FE0000CF00CFD094A0A4BD31ADB081B0443F0D2
:106FF0000303084918460BF019FAFFF775FFFFF76E
:1070000059FFFFF749FFFCE7BC430300944203002C
:107010006C420300D043030000B583B00190019B94
:107020001B68184600F011F90346002B04D10549EE
:107030004FF4F670FFF7E8F94FF0A043184603B09D
:107040005DF804FBFC43030000B585B001900846E1
:1070500011461A4603468DF803300B468DF8023070
:1070600013468DF8013001AB1846FFF7D5FF0390AA
:107070009DF803209DF802305B001A439DF8013013
:107080009B001A439DF818301B0242EA03019DF849
:107090001C301B04019A1943039B02F5E07243F86C
:1070A000221000BF05B05DF804FB00B585B0039069
:1070B0000023019300230093002301220121039860
:1070C000FFF7C2FF00BF05B05DF804FB00B585B057
:1070D00003900B468DF80B309DF80B300022019287
:1070E00000220092002200210398FFF7ADFF00BFAD
:1070F00005B05DF804FB00B585B0019001AB184602
:10710000FFF78AFF0390019B012202FA03F319465D
:10711000039800F086F800BF05B05DF804FB00B5E9
:1071200085B0019001AB1846FFF776FF0390019BF5
:10713000012202FA03F31946039800F07CF800BF1D
:1071400005B05DF804FB00B585B0019001AB1846B1
:10715000FFF762FF0390039BD3F804350293029B71
:10716000DA43019B012101FA03F31A40039BC3F8A0
:107170000825019B01229A40029B1A40039BC3F8F9
:107180000C2500BF05B05DF804FB00B583B001908D
:107190000091009B002B03D10198FFF7C0FF02E094
:1071A0000198FFF7A8FF00BF03B05DF804FB00B52E
:1071B00085B0019001AB1846FFF72EFF03900398AE
:1071C00000F01FF80246019B22FA03F303F00103CB
:1071D000184605B05DF804FB00B585B0019001AB21
:1071E0001846FFF719FF0390039800F012F80246C3
:1071F000019B22FA03F303F00103184605B05DF882
:1072000004FB82B00190019BD3F81035184602B000
:10721000704782B00190019BD3F80435184602B044
:10722000704782B001900091019B009AC3F8082535
:1072300000BF02B0704782B001900091019B009A9C
:10724000C3F80C2500BF02B0704784B00190019BC9
:107250005B09029300230393029B002B03D14FF0A1
:10726000FF33039300BF019B03F01F030193039AB5
:10727000019B22FA03F303F00103002B14BF012347
:107280000023DBB2184604B07047000000B585B09B
:107290000190019B032B03D911493A20FFF7B4F861
:1072A000104A019B13441B781846FFF795FF0346CD
:1072B000002B14BF012300238DF80F309DF80F30F1
:1072C000002B14BF01230023DBB283F00103DBB2E8
:1072D00003F00103DBB2184605B05DF804FB00BF04
:1072E000244403004C44030000B583B00190019B8B
:1072F000032B03D907494120FFF786F8064A019B73
:1073000013441B7800211846FFF73FFF00BF03B06E
:107310005DF804FB244403004C44030000B583B033
:107320000190019B032B03D907494720FFF76CF815
:10733000064A019B13441B7801211846FFF725FFDD
:1073400000BF03B05DF804FB244403004C44030079
:1073500000B583B00023019305E00198FFF7DEFF3D
:10736000019B01330193019B032BF6D900BF00BFA2
:1073700003B05DF804FB00B583B00023019305E082
:107380000198FFF7B1FF019B01330193019B032B90
:10739000F6D900BF00BF03B05DF804FB00B583B0B1
:1073A0000190019B032B03D907495F20FFF72CF8BD
:1073B000064A019B13441B781846FFF7C4FE00BF22
:1073C00003B05DF804FB00BF244403004C440300F9
:1073D00000B583B00023019309E0094A019B1344DF
:1073E0001B781846FFF761FE019B01330193019B57
:1073F000032BF2D9FFF7ACFF00BF03B05DF804FB2D
:107400004C44030000B585B00190019B032B03D9C8
:107410001149AC20FEF7F8FF104A019B13441B787A
:107420001846FFF7C4FE0346002B14BF01230023B8
:107430008DF80F309DF80F30002B14BF012300236F
:10744000DBB283F00103DBB203F00103DBB21846C9
:1074500005B05DF804FB00BF244403005044030062
:1074600000B583B0002301930AE0094A019B13444D
:107470001B7803211846FFF729FE019B0133019376
:10748000019B032BF1D900BF00BF03B05DF804FBE3
:107490005044030084B001904FF0FF330293002367
:1074A00003930DE00A4A039B13441B781A46019B81
:1074B000934202D1039B029305E0039B01330393A4
:1074C000039B032BEED9029B184604B0704700BF04
:1074D0005044030000B583B00190019B032B03D9F6
:1074E0000549CB20FEF790FF044A019B13441B780B
:1074F000184603B05DF804FB244403005044030025
:1075000000B583B00190019B03F00103002B01D073
:10751000FFF75EFF019B03F00203002B01D0FFF792
:107520009FFF00BF03B05DF804FB000000B583B00F
:107530000190019B1B68184600F03EF80346002BA3
:1075400004D105494FF4F670FEF75EFF4FF0A043FB
:10755000184603B05DF804FB5444030000B585B041
:1075600001900B468DF8033001AB1846FFF7DEFFA4
:107570000390019A039B02F5E07253F82230019ABE
:1075800023F44031039B02F5E07243F82210019A84
:10759000039B02F5E07253F822309DF80320120499
:1075A0001146019A1943039B02F5E07243F8221039
:1075B00000BF05B05DF804FB84B00190019B5B093E
:1075C000029300230393029B002B03D14FF0FF3360
:1075D000039300BF019B03F01F030193039A019BD8
:1075E00022FA03F303F00103002B14BF012300234D
:1075F000DBB2184604B0704700B583B00190019B20
:10760000032B04D80198FFF7FDFE034600E000239A
:10761000184603B05DF804FB00B587B003460A4680
:107620008DF8073013468DF8063000238DF817309B
:10763000002304939DF807301846FFF72BFF0490B2
:10764000049B032B61D89DF80630022B52D0022BED
:107650005EDC002B31D0012B5AD13649049A1346F7
:107660005B0013440B441B788DF817303149049AA2
:1076700013465B0013440B4401331B78002B0ED0E0
:107680002D4B2E4A4FF48041184608F065F80390C0
:10769000039B002B03D1294A9DF80730137025491D
:1076A000049A13465B0013440B4402331978244AAE
:1076B000049B13440A461A702AE01F4B184608F030
:1076C000A3F81F4A049B134419781A48049A1346D6
:1076D0005B001344034402331B78994217D11549C8
:1076E000049A13465B0013440B4402331B788DF855
:1076F00017300CE00F49049A13465B0013440B4407
:1077000001331B788DF8173002E000BF00E000BFA6
:107710009DF81730002B09D00A4B1B68002B05D0B1
:10772000084B1B689DF817201046984700BF07B00C
:107730005DF804FB90330020702B00209C33002068
:10774000A03300208C33002000B583B00190019B52
:107750001B7802211846FFF75FFF00BF03B05DF8FA
:1077600004FB000000B583B00C4B1B78002B0FD03E
:107770000023019308E0019B022B02D00198FFF740
:10778000CDFD019B01330193019B032BF3D901E054
:10779000FFF7DEFD00BF03B05DF804FB8833002077
:1077A0002DE9D04F92B003468DF83F30002311935E
:1077B00000231093CC4B1B78002B04D0CA4A002323
:1077C0001370FFF7CFFF9DF83F30172B00F23F8279
:1077D00001A252F823F000BF39780200517802006C
:1077E00051780200ED78020089790200057A0200E2
:1077F000997A0200B97A0200C97A0200F57A020089
:10780000137B0200317B02004F7B02005D7B020094
:107810005D7B02005D7B02005D7B02005D7B020000
:10782000F17B0200FF7B0200137C0200277C020038
:10783000417C0200417C0200FFF794FFAB4B1846ED
:1078400007F0E2FF1190AA4A9DF83F301370FFE164
:107850000020FFF71BFD0346002B0DD00020FFF793
:107860005DFD9DF83F30022B02D14FF4E16301E052
:107870004FF47A6310930BE00020FFF735FD9DF87D
:107880003F30022B01D1C82301E04FF4C87310939D
:10789000974A9DF83F301370944C109B0022009340
:1078A00001924FF000024FF00003DDE90067394616
:1078B000CB03314643EA51433146CA0312F57A718C
:1078C000029143F1000303934FF4FA624FF0000377
:1078D000DDE902010BF096FF02460B46134600223B
:1078E0001946204607F038FF1190B1E10020FFF75C
:1078F000CDFC0346002B0DD00020FFF70FFD9DF8B7
:107900003F30032B02D14FF4487301E04FF47A6308
:1079100010930BE00020FFF7E7FC9DF83F30032BAE
:1079200001D1C82301E04FF4C8731093704A9DF849
:107930003F3013706D4C109B0022049305924FF062
:1079400000024FF00003DDE904673946CB033146FE
:1079500043EA51433146CA0312F57A71069143F165
:10796000000307934FF4FA624FF00003DDE90601CC
:107970000BF048FF02460B461346002219462046EC
:1079800007F0EAFE119063E10020FFF77FFC034659
:10799000002B06D00020FFF7C1FC4FF47A63109350
:1079A00005E00020FFF7A0FC4FF4C8731093504A85
:1079B0009DF83F3013704D4C109B00229A46934621
:1079C0004FF000024FF000034FEACB3343EA5A4333
:1079D0004FEACA3212F57A71089143F10003099314
:1079E0004FF4FA624FF00003DDE908010BF00AFFE3
:1079F00002460B46134600221946204607F0ACFE0D
:107A0000119025E10020FFF741FC0346002B0CD02C
:107A10000020FFF783FC9DF83F30052B01D1C823E0
:107A200001E04FF47A6310930BE00020FFF75CFC59
:107A30009DF83F30052B01D1C82301E04FF4C873F6
:107A400010932B4A9DF83F301370284C109B002256
:107A5000984691464FF000024FF000034FEAC933B9
:107A600043EA58434FEAC83212F57A710A9143F15A
:107A700000030B934FF4FA624FF00003DDE90A01B3
:107A80000BF0C0FE02460B46134600221946204664
:107A900007F062FE1190DBE00020FFF77FFC144A44
:107AA0009DF83F301370114B002240F2666118467A
:107AB00007F052FE1190CBE00020FFF715FC0C4AB6
:107AC0009DF83F301370C3E0074B01221A7001206C
:107AD000FFF764FC054B002240F26661184607F090
:107AE0003BFE1190B4E000BF81330020302B00201A
:107AF00080330020594B01221A700120FFF74EFC01
:107B0000574B00224FF40051184607F025FE119004
:107B10009EE0524B01221A700120FFF73FFC504BB0
:107B2000002240F26661184607F016FE11908FE0C1
:107B30004A4B01221A700120FFF730FC484B00220B
:107B40004FF40051184607F007FE119080E0FFF750
:107B500012FC444A9DF83F30137079E0424B1846BE
:107B600007F052FE11909DF83F30C3F111031093BE
:107B7000109B002B35D0119B002B32D1109B012B79
:107B800028D9394C109B9BB21A46C82302FB03F339
:107B9000DA171E4617464FF000024FF00003FB03B2
:107BA00043EA5643F20312F57A710C9143F1000354
:107BB0000D934FF4FA624FF00003DDE90C010BF076
:107BC00021FE02460B46134600221946204607F0C6
:107BD000C3FD11900220FFF787FB244B01221A708E
:107BE00036E00220FFF79AFB204B00221A702FE0AC
:107BF000FFF7B8FD1B4A9DF83F30137028E0FFF7F0
:107C0000B1FD0020FFF770FB164A9DF83F3013705E
:107C10001EE0FFF7A7FD0120FFF766FB114A9DF864
:107C20003F30137014E0FFF79DFD0020FFF75CFB71
:107C30000120FFF759FB0B4A9DF83F30137007E016
:107C4000FFF799FB074A9DF83F30137000E000BF33
:107C5000119B184612B0BDE8D08F00BF81330020C1
:107C6000302B002080330020502B00208833002050
:107C700000B583B00190074B1B6803F00103002B94
:107C800004D0054B1B781846FFF78AFD00BF03B0F0
:107C90005DF804FB843300208033002000B583B0FE
:107CA00001900220FFF77AFB00BF03B05DF804FBF0
:107CB00000B585B003468DF8073000230393084BC9
:107CC0001B6803F00103002B05D09DF80730184610
:107CD000FFF766FD0390039B184605B05DF804FBB3
:107CE0008433002000B585B00190009100230393F8
:107CF0002A4A019B13602A4A009B1360019B03F0F0
:107D00000203002B2AD00023029308E00122012164
:107D1000029800F055F80390029B01330293029BF6
:107D2000032B02D8039B002BF0D0039B002B06D122
:107D300040F2333204211B4806F03AFF0390039BC4
:107D4000002B02D106F0BCFF0390039B002B05D152
:107D5000154A0021154807F0C5FC0390019B03F06C
:107D60000103002B14D00120FFF7CAFB039B002B5B
:107D700005D10F4A00210F4807F0B4FC0390039B84
:107D8000002B05D10C4A01210C4807F0ABFC0390F5
:107D9000039B184605B05DF804FB00BF8433002048
:107DA0008C33002088440300497702008444030098
:107DB000717C02007C4403009D7C0200804403002F
:107DC00084B001900B468DF8033013468DF80230D5
:107DD00000230393019B032B3CD89DF80230012B19
:107DE0000BD19DF80330012B04D1019BDBB20E3384
:107DF000DBB200E000238DF802309DF80330022B47
:107E00000FD0022B23DC002B16D0012B1FD11449DD
:107E1000019A13465B0013440B449DF802201A702C
:107E20001AE00F49019A13465B0013440B440133D7
:107E30009DF802201A700FE00949019A13465B0071
:107E400013440B4402339DF802201A7004E0072308
:107E5000039301E007230393039B184604B0704784
:107E60009033002000B585B001900B468DF80330AB
:107E7000019B032B14D89DF80330002B01D0032362
:107E800000E000238DF80F300198FFF723FB024636
:107E90009DF80F3019461046FFF760FB002300E005
:107EA0000623184605B05DF804FB00B583B00190C9
:107EB00001210198FFF7D6FF0346184603B05DF88D
:107EC00004FB00B583B0012200210020FFF778FFFA
:107ED0000190019B002B04D0019B072B01D0019B3B
:107EE0001CE0072202210120FFF76AFF0190019B9D
:107EF000002B04D0019B072B01D0019B0EE0042234
:107F000002210020FFF75CFF0190019B002B04D0B1
:107F1000019B072B01D0019B00E00023184603B012
:107F20005DF804FB00B583B0012202210020FFF7B9
:107F300047FF0190019B002B04D0019B072B01D030
:107F4000019B1CE0072202210120FFF739FF01906D
:107F5000019B002B04D0019B072B01D0019B0EE05D
:107F60000A2200210020FFF72BFF0190019B002B2C
:107F700004D0019B072B01D0019B00E00023184691
:107F800003B05DF804FB00B583B001900120FFF75A
:107F900033FB0346002B03D0019B02221A700CE036
:107FA0000020FFF729FB0346002B03D0019B0B2287
:107FB0001A7002E0019B00221A7000BF03B05DF846
:107FC00004FB00B583B00020FFF76FFF0190019B19
:107FD000002B04D0019B062B01D0019B0CE001205B
:107FE000FFF763FF0190019B002B04D0019B062B40
:107FF00001D0019B00E00023184603B05DF804FBAC
:1080000000B585B001900091019B1B88102B02D018
:10801000112B18D02FE01A4B1B68002B0DD1FFF746
:1080200050FF0390039B002B07D0164B1B68002BBF
:1080300003D0144B1B6803989847114B1B680133FE
:108040000F4A136017E00E4B1B68013B0C4A13608C
:108050000B4B1B68002B0DD1FFF764FF0390039BB4
:10806000002B07D0074B1B68002B03D0054B1B6868
:108070000398984700BF00BF05B05DF804FB00BF40
:10808000A8330020A433002000B585B001900091F2
:10809000002303930A4A019B1360009B002B02D02C
:1080A0000098FFF770FF074B1B68002B02D1FFF70A
:1080B00039FF0390039B184605B05DF804FB00BF31
:1080C000A4330020A8330020BFF34F8F00BF064B1E
:1080D000DB6803F4E0620449044B1343CB60BFF355
:1080E0004F8F00BF00BFFDE700ED00E00400FA0580
:1080F00082B01D4B1B68B3F1FF3F0AD11B4B1B68BD
:10810000DBB201931A4B1B681B0903F00F030093AA
:1081100005E0154B1B680193164B1B680093019BF0
:10812000062B1DD1009B033B042B17D801A252F84C
:1081300023F000BF498102004D81020051810200FD
:10814000558102005981020001230AE0012308E061
:10815000012306E0012304E0012302E0012300E003
:108160000023184602B0704730010010E00F00F005
:10817000E80F00F03401001082B0174B1B68DBB22F
:108180000193164B1B681B0903F00F030093019B1F
:10819000062B1DD1009B033B042B17D801A252F8DC
:1081A00023F000BFB9810200BD810200C18102003D
:1081B000C5810200C981020001230AE0002308E012
:1081C000002306E0002304E0002302E0002300E097
:1081D0000023184602B07047E00F00F0E80F00F0EF
:1081E00082B01D4B1B68B3F1FF3F0AD11B4B1B68CC
:1081F000DBB201931A4B1B681B0903F00F030093BA
:1082000005E0154B1B680193164B1B680093019BFF
:10821000062B1DD1009B033B042B17D801A252F85B
:1082200023F000BF398202003D8202004182020039
:10823000458202004982020001230AE0012308E08E
:10824000012306E0012304E0012302E0012300E012
:108250000023184602B0704730010010E00F00F014
:10826000E80F00F03401001082B0174B1B68DBB23E
:108270000193164B1B681B0903F00F030093019B2E
:10828000062B1DD1009B033B042B17D801A252F8EB
:1082900023F000BFA9820200AD820200B182020079
:1082A000B5820200B982020001230AE0002308E03F
:1082B000002306E0002304E0002302E0002300E0A6
:1082C0000023184602B07047E00F00F0E80F00F0FE
:1082D00082B01D4B1B68B3F1FF3F0AD11B4B1B68DB
:1082E000DBB201931A4B1B681B0903F00F030093C9
:1082F00005E0154B1B680193164B1B680093019B0F
:10830000062B1DD1009B033B042B17D801A252F86A
:1083100023F000BF298302002D8302003183020075
:10832000358302003983020001230AE0012308E0BB
:10833000012306E0012304E0012302E0012300E021
:108340000023184602B0704730010010E00F00F023
:10835000E80F00F03401001082B0174B1B68DBB24D
:108360000193164B1B681B0903F00F030093019B3D
:10837000062B1DD1009B033B042B17D801A252F8FA
:1083800023F000BF998302009D830200A1830200B5
:10839000A5830200A983020001230AE0002308E06C
:1083A000002306E0002304E0002302E0002300E0B5
:1083B0000023184602B07047E00F00F0E80F00F00D
:1083C00082B0174B1B68DBB20193164B1B681B096D
:1083D00003F00F030093019B062B1DD1009B033B71
:1083E000042B17D801A252F823F000BF0184020029
:1083F00005840200098402000D8402001184020039
:1084000001230AE0002308E0002306E0002304E043
:10841000002302E0002300E00023184602B070476A
:10842000E00F00F0E80F00F082B01D4B1B68B3F1C5
:10843000FF3F0AD11B4B1B68DBB201931A4B1B6831
:108440001B0903F00F03009305E0154B1B68019314
:10845000164B1B680093019B062B1DD1009B033B11
:10846000042B17D801A252F823F000BF8184020028
:1084700085840200898402008D84020091840200B8
:1084800000230AE0002308E0012306E0012304E0C2
:10849000012302E0012300E00023184602B07047E8
:1084A00030010010E00F00F0E80F00F03401001080
:1084B00082B01D4B1B68B3F1FF3F0AD11B4B1B68F9
:1084C000DBB201931A4B1B681B0903F00F030093E7
:1084D00005E0154B1B680193164B1B680093019B2D
:1084E000062B1DD1009B033B042B17D801A252F889
:1084F00023F000BF098502000D85020011850200EE
:10850000158502001985020001230AE0012308E015
:10851000012306E0012304E0012302E0012300E03F
:108520000023184602B0704730010010E00F00F041
:10853000E80F00F03401001082B01D4B1B68B3F14E
:10854000FF3F0AD11B4B1B68DBB201931A4B1B6820
:108550001B0903F00F03009305E0154B1B68019303
:10856000164B1B680093019B062B1DD1009B033B00
:10857000042B17D801A252F823F000BF9185020006
:1085800095850200998502009D850200A185020063
:1085900001230AE0012308E0012306E0012304E0AF
:1085A000012302E0012300E00023184602B07047D7
:1085B00030010010E00F00F0E80F00F0340100106F
:1085C00082B0154B1B680193144B1B680093019BF1
:1085D000062B1DD1009B033B042B17D801A252F898
:1085E00023F000BFF9850200FD850200018602002C
:1085F000058602000986020000230AE0002308E045
:10860000002306E0012304E0012302E0012300E04F
:108610000023184602B070473001001034010010EA
:1086200082B0154B1B680193144B1B680093019B90
:10863000062B1DD1009B033B042B17D801A252F837
:1086400023F000BF598602005D86020061860200A9
:10865000658602006986020000230AE0002308E024
:10866000002306E0002304E0012302E0012300E0F0
:108670000023184602B0704730010010340100108A
:1086800008B5FFF7CDFF0346002B07D04FF01023AE
:108690004FF08042D3F80832C2F8583500BF08BD09
:1086A00000BF044BD3F80034002BFAD000BF00BF4A
:1086B000704700BF00E0014000B583B00190054A5B
:1086C000019BC2F80435FFF7EBFF00BF03B05DF874
:1086D00004FB00BF00E00140024B034A1A6000BFE8
:1086E000704700BF902B00200090D00308B5FFF723
:1086F000FFFC0346002B06D0964B1B681B0A964ACC
:1087000003F01F031360FFF737FD0346002B02D071
:10871000924B934A1A60FFF763FD0346002B06D085
:10872000904B1B685B0B904A03F007031360FFF745
:108730009BFD0346002B05D08C4BDB688B4A23F056
:108740008073D360FFF7C4FD0346002B0ED04FF0BB
:1087500080430022C3F80C214FF080430022C3F86D
:1087600010214FF080430022C3F83825FFF7F4FDB5
:108770000346002B02D07E4B03221A60FFF720FE37
:108780000346002B0BD07B4B05221A607A4B01224B
:108790001A607A4B00221A60794B3F221A60FFF769
:1087A00043FE0346002B76D04FF08053754AD3F832
:1087B0000434C2F820354FF08053724AD3F808349D
:1087C000C2F824354FF080536E4AD3F80C34C2F807
:1087D00028354FF080536B4AD3F81034C2F82C354B
:1087E0004FF08053674AD3F81434C2F830354FF055
:1087F0008053644AD3F81834C2F834354FF08053AC
:10880000604AD3F81C34C2F840354FF080535D4ABB
:10881000D3F82034C2F844354FF08053594AD3F886
:108820002434C2F848354FF08053564AD3F82834E0
:10883000C2F84C354FF08053524AD3F82C34C2F86A
:1088400050354FF080534F4AD3F83034C2F8543586
:108850004FF080534B4AD3F83434C2F860354FF0B0
:108860008053484AD3F83834C2F864354FF0805307
:10887000444AD3F83C34C2F868354FF08053414A3B
:10888000D3F84034C2F86C354FF080533D4AD3F8EA
:108890004434C2F87035FFF70BFE0346002B05D0B9
:1088A000394B1B68394A03F04F031360FFF744FE4E
:1088B0000346002B0DD04FF08043D3F8003403F073
:1088C0000103002B05D04FF080436FF00102C3F885
:1088D0000024FFF775FE0346002B05D02C4B1B68C8
:1088E0002B4A43F4806313602A4BD3F88830294A1B
:1088F00043F47003C2F88830BFF34F8F00BFBFF35B
:108900006F8F00BFFFF7BCFE4FF01023D3F800328B
:10891000002B05DB4FF01023D3F80432002B15DABF
:108920000120FFF7C9FE4FF010231522C3F80022E3
:10893000FFF7B6FE4FF010231522C3F80422FFF70D
:10894000AFFE0020FFF7B8FEFFF7BEFBFFF7C4FE47
:1089500000BF08BD240300104035014074C007402B
:108960000DF0ADBA440200103C050040F0ED00E00F
:10897000A0050040105600408856004018560040A0
:108980001456004000C0004058020010E40E0040A1
:108990003C17004000ED00E06DDF704700BF184657
:1089A00079DF704700BF18467DDF704700BF18466B
:1089B00064DF704700BF184682B003460091ADF8EF
:1089C0000630BDF80630DAB2009B1A70BDF80630EA
:1089D0001B0A9AB2009B0133D2B21A7002231846C6
:1089E00002B0704700B589B0039002911346ADF80C
:1089F0000630029B1B8803F10902BDF806309A423B
:108A000001D90C2353E004AB1846FFF7C5FF0790CC
:108A1000079B0693069B002B01D0069B47E0029B19
:108A20001B881A46039B134408221A70029B1B885A
:108A300001339AB2029B1A80029B1B881A46039B41
:108A400013441B221A70029B1B8801339AB2029BAB
:108A50001A80029B1B881A46039B981804AB0133AB
:108A6000062219460AF0FBFF029B1B8806339AB2C6
:108A7000029B1A809DF8103023F00103DBB2002B1B
:108A800007D1029B1B881A46039B134400221A70CD
:108A900006E0029B1B881A46039B134401221A70AE
:108AA000029B1B8801339AB2029B1A80002318464E
:108AB00009B05DF804FB00B589B003900291019202
:108AC000ADF80230039B1B78012B05D1039B5B782B
:108AD000002B01D1072392E0019B1B889A1CBDF853
:108AE00002309A420ED8039B1B78012B0CD1019BBC
:108AF0001B881A46039B5B7813449A1CBDF802300E
:108B00009A4201D90C237AE0019B1B88BDF8022010
:108B1000D31A9BB2023BADF81C30BDF81C30ADF847
:108B20001230019B1B880233029A13440DF112028A
:108B300011461846FFF738FF0690069B0593059BE4
:108B4000002B01D0059B5AE0039B1B78022B06D01B
:108B5000039B5B789AB2BDF812309A4209D3BDF8F4
:108B60001230BDF81C209A4203D309238DF81F3020
:108B700017E008238DF81F30039B1B78012B0CD1C5
:108B8000039B5B789BB2BDF81C209A4205D3039BE4
:108B90005B789BB2ADF8123003E0BDF81C30ADF845
:108BA0001230BDF81230FE2B01D90C2327E0BDF89E
:108BB0001230DAB2019B1B881946029B0B4401322A
:108BC000D2B21A70019B1B8801339AB2019B1A80A2
:108BD000019B1B881A46029B13449DF81F201A70A4
:108BE000019B1B8801339AB2019B1A80019B1A8852
:108BF000BDF8123013449AB2019B1A800023184624
:108C000009B05DF804FB00B589B0039002911346EA
:108C1000ADF80630029B1B881A1DBDF806309A423B
:108C200001D90C233BE00DF116031846FFF7B8FEFF
:108C30000790079B0693069B002B01D0069B2EE016
:108C4000029B1B881A46039B134403221A70029B43
:108C50001B8801339AB2029B1A80029B1B881A461A
:108C6000039B134419221A70029B1B8801339AB28A
:108C7000029B1A80BDF81620029B1B881946039B95
:108C80000B4419461046FFF797FE03461946029B10
:108C90001A888BB213449AB2029B1A80002318469A
:108CA00009B05DF804FB84B0029101921A460346B4
:108CB0008DF80F301346ADF80C30019B1B88DA1C81
:108CC000BDF80C309A4201D90C2328E0019B1B8887
:108CD0001A46029B134402221A70019B1B8801331F
:108CE0009AB2019B1A80019B1B881A46029B13446F
:108CF00001221A70019B1B8801339AB2019B1A80D2
:108D0000019B1B881A46029B13449DF80F201A7082
:108D1000019B1B8801339AB2019B1A8000231846DD
:108D200004B0704784B0029101921A4603468DF850
:108D30000F301346ADF80C30019B1B88DA1CBDF8D0
:108D40000C309A4201D90C2328E0019B1B881A465B
:108D5000029B134402221A70019B1B8801339AB2B2
:108D6000019B1A80019B1B881A46029B13440A220E
:108D70001A70019B1B8801339AB2019B1A80019BD8
:108D80001B881A46029B13449DF80F201A70019B02
:108D90001B8801339AB2019B1A800023184604B045
:108DA000704700B58FB0039001930B468DF80B30E0
:108DB00013468DF80A3000238DF83330109B1B8842
:108DC000ADF8303000230D9371E0039B5A680D9B82
:108DD0009B001A4405AB106818600DF11B0105AB30
:108DE00000221846FFF7E4FD0A900A9B0993099BAD
:108DF000002B01D0099B7CE09DF81B309DF80A20D8
:108E00009A4251D19DF83330002B01D0002300E06D
:108E100002238DF82330109B1B881A469DF81B30C7
:108E20001A449DF823301A44BDF844309A4201DDBB
:108E30000C235EE09DF8333083F00103DBB2002B9E
:108E400016D0109B1B8801339AB2109B1A80109B7E
:108E50001B881A46019B13449DF80B201A70109B27
:108E60001B8801339AB2109B1A8001238DF833308E
:108E7000109B1B881A46019B1A440DF11B0105AB80
:108E80001846FFF795FD0A900A9B0793079B002B56
:108E900001D0079B2DE0109B1A889DF81B309BB2D8
:108EA00013449AB2109B1A800D9B01330D93039BC0
:108EB0001B881A460D9B934287DB9DF83330002BAD
:108EC00016D0109B1A88BDF83030D31A9BB2013BE4
:108ED000ADF82E30BDF82E30FF2B01D90C2308E061
:108EE000BDF83030019A1344BDF82E20D2B21A706A
:108EF000002318460FB05DF804FB00B58BB0059059
:108F000003930B468DF8133013468DF812309DF8FD
:108F10001310BDF8343001930C9B0093039B022285
:108F20000598FFF73EFF0990099B0893089B002BCB
:108F300001D0089B14E09DF81210BDF83430019365
:108F40000C9B0093039B10220598FFF72AFF0990C2
:108F5000099B0793079B002B01D0079B00E0002390
:108F600018460BB05DF804FB82B00190019B1B8892
:108F7000052B0AD9019B1B88B3F5486F07D9019BC4
:108F80001B884FF6FF72934201D0072325E0019B17
:108F90005B88052B0AD9019B5B88B3F5486F07D91D
:108FA000019B5B884FF6FF72934201D0072314E0C8
:108FB000019B1B884FF6FF7293420DD0019B5B888B
:108FC0004FF6FF72934207D0019B1A88019B5B8882
:108FD0009A4201D9072300E00023184602B07047E7
:108FE00000B587B0039002910192ADF80230019B69
:108FF0001B889A1DBDF802309A4201D90C234DE01E
:109000000398FFF7B1FF0590059B0493049B002B89
:1090100001D0049B42E0019B1B881A46029B13442B
:1090200005221A70019B1B8801339AB2019B1A809A
:10903000019B1B881A46029B134412221A70019B43
:109040001B8801339AB2019B1A80039B1A88019BEB
:109050001B881946029B0B4419461046FFF7ACFCCF
:1090600003461946019B1A888BB213449AB2019B9E
:109070001A80039B5A88019B1B881946029B0B444C
:1090800019461046FFF798FC03461946019B1A88BB
:109090008BB213449AB2019B1A800023184607B082
:1090A0005DF804FB00B587B0039002910192ADF822
:1090B0000230039B9B8802330593019B1B881A4651
:1090C000059B13449A1CBDF802309A4201D90C2327
:1090D00054E0059BFE2B01D90C234FE0059BDAB22F
:1090E000019B1B881946029B0B440132D2B21A70B5
:1090F000019B1B8801339AB2019B1A80019B1B883C
:109100001A46029B1344FF221A70019B1B880133ED
:109110009AB2019B1A80039B1A88019B1B881946EF
:10912000029B0B4419461046FFF746FC03461946BE
:10913000019B1A888BB213449AB2019B1A80039B3D
:109140009B88002B19D0039B9B68002B01D1072320
:1091500014E0019B1B881A46029B9818039B996890
:10916000039B9B881A460AF07AFC019B1A88039B92
:109170009B8813449AB2019B1A800023184607B0BB
:109180005DF804FB00B589B0039002910192ADF83F
:109190000230039B9B6A002B01D1072372E000235E
:1091A0008DF81F3066E0039B996A9DF81F201346D7
:1091B0005B0013449B000B440693069B9B88023381
:1091C0000593059BFE2B01D90C235BE0059BDAB2CE
:1091D000019B1B881946029B0B440132D2B21A70C4
:1091E000019B1B8801339AB2019B1A80019B1B884B
:1091F0001A46029B134416221A70019B1B880133E6
:109200009AB2019B1A80069B1A88019B1B881946FB
:10921000029B0B4419461046FFF7CEFB0346194646
:10922000019B1A888BB213449AB2019B1A80069B49
:109230009B88002B19D0069B9B68002B01D107232C
:1092400020E0019B1B881A46029B9818069B996890
:10925000069B9B881A460AF002FC019B1A88069B13
:109260009B8813449AB2019B1A809DF81F300133EA
:109270008DF81F30039B93F82C309DF81F209A42E5
:1092800091D30023184609B05DF804FB00B595B0F2
:1092900005900491039200231393039B1B88ADF860
:1092A0004A30039B00221A80059B93F82D30002B37
:1092B0000ED0BDF84A301A4603990498FFF792FB86
:1092C0001390139B1193119B002B01D0119BD8E09D
:1092D000059B9B78002B0ED0BDF84A301A460399A7
:1092E0000498FFF790FC1390139B1093109B002B96
:1092F00001D0109BC5E0059BDB78002B10D0059BAF
:10930000DB7858B2BDF84A30039A0499FFF7CBFCDA
:109310001390139B0F930F9B002B01D00F9BB0E07A
:10932000059B5B68002B11D0059B5B6893F90000DF
:10933000BDF84A30039A0499FFF7F4FC1390139B8D
:109340000E930E9B002B01D00E9B9AE0059B1B8970
:10935000002B14D0059B03F10800BDF84A3001939F
:10936000039B0093049B06220221FFF7C6FD139086
:10937000139B0D930D9B002B01D00D9B81E0059B52
:109380001B8A002B14D0059B03F11000BDF84A3056
:109390000193039B0093049B07220321FFF7ADFD7C
:1093A0001390139B0C930C9B002B01D00C9B68E03B
:1093B000059B1B8B002B14D0059B03F11800BDF8F7
:1093C0004A300193039B0093049B15221421FFF75D
:1093D00094FD1390139B0B930B9B002B01D00B9BC5
:1093E0004FE0059B1B6A002B0FD0059B186ABDF848
:1093F0004A30039A0499FFF7F3FD1390139B0A93E5
:109400000A9B002B01D00A9B3BE0059B5B6A002B6B
:109410000FD0059B586ABDF84A30039A0499FFF7AC
:1094200041FE1390139B0993099B002B01D0099BCC
:1094300027E0059B93F82C30002B0ED0BDF84A3066
:10944000039A04990598FFF79DFE1390139B0893C8
:10945000089B002B01D0089B13E0059B1B78002B79
:109460000ED0BDF84A30039A04990598FFF723FB04
:109470001390139B0793079B002B01D0079B00E0E1
:10948000139B184615B05DF804FB86B0039001925B
:109490001A460B46ADF80A3013468DF80930039B87
:1094A000002B02D0019B002B01D100235CE00023A4
:1094B000ADF816300CE0BDF81630039A13441B7853
:1094C0009AB2BDF8163013449BB20133ADF8163092
:1094D000BDF816305A1CBDF80A309A420FDA019BCB
:1094E0001B88BDF816209A42E5D3BDF8163001332B
:1094F000039A13441B789DF809209A42DBD1BDF8EA
:109500001620BDF80A309A4201D300232CE0BDF8A2
:1095100016300233ADF81430BDF81630039A1344F8
:109520001B78002B08D0BDF81630039A13441B7823
:109530009BB2013B9BB200E00023ADF81230BDF8B6
:109540001230002B08D0BDF81420BDF812301A4498
:10955000BDF80A309A4201DD002305E0019BBDF809
:1095600014201A80BDF81230184606B0704700B5B6
:1095700085B001900B46ADF8023013468DF80130EE
:109580000023ADF80C309DF8013003AABDF802109D
:109590000198FFF77AFF0346ADF80E30BDF80E30A4
:1095A000002B01D1002304E0BDF80C301A46019BCA
:1095B0001344184605B05DF804FB72DF704700BF26
:1095C000184673DF704700BF184674DF704700BF4E
:1095D000184682B00190019B93F83034184602B0CF
:1095E000704784B00190002303930AE0019A039B23
:1095F00013441B78002B01D0012306E0039B0133A9
:109600000393039B052BF1D90023184604B0704740
:1096100082B003468DF807309DF807305A1C074B7F
:1096200083FB02135910D317C91A0B469B000B4436
:10963000D11ACBB2184602B0704700BF67666666A3
:1096400082B001900091009BDB7B012B04D1009B39
:109650009A88019BA3F8242400BF02B0704700B58C
:1096600085B001900091019B002283F82E24009B7D
:109670009A88019BB3F824349A4216D1019B1B7936
:1096800083F00103DBB2002B0FD00121019800F021
:10969000B1FA0390039B002B07D0019B9B6B002B1F
:1096A00003D0019B9B6B0398984700BF05B05DF802
:1096B00004FB00B585B001900091009B1B88262B10
:1096C0001ED1009B1B7A012B03D0009B1B7A022B1F
:1096D00017D1019B9B781846FFF79AFF034619465E
:1096E000019800F087FA0390039B002B09D0019B9F
:1096F0009B6B002B05D0019B9B6B0398984700E068
:1097000000BF05B05DF804FB00B585B001900B46C5
:109710008DF80330019B03F227431846FFF761FFE2
:1097200003468DF80F309DF80330013B032B33D8EF
:1097300001A252F823F000BF499702006D97020082
:10974000819702008D970200019B9B79002B0DD021
:10975000019B93F8243083F00103DBB2002B05D08A
:109760009DF80F30002B01D0012316E0019BDB791F
:10977000002B05D09DF80F30002B01D002230CE008
:10978000019B1B7A002B01D0032306E0019B5B7A2F
:10979000002B01D0042300E00023184605B05DF83B
:1097A00004FB00BF82B001900091019B012283F86D
:1097B0003120019B0022C3F82024019B03F22642A2
:1097C000009B5A60009B00229A60009B02221A7044
:1097D000009B80229A810023184602B0704782B015
:1097E00001900091019B022283F83120019B93F8A4
:1097F0002430002B03D0009B07221A7002E0009B4C
:1098000003221A70019B1B699AB2009B9A81019BEB
:109810000022C3F82024019B03F22642009B5A60D9
:10982000019BDA68009B9A600023184602B07047DB
:1098300000B583B00190019B5B79002B0FD0019B99
:1098400093F82E3483F00103DBB2002B07D001988C
:10985000FFF7BFFE0346002B01D0012300E00023E9
:1098600003F00103DBB2184603B05DF804FB00B55A
:1098700085B001900B468DF80330019BD3F810049E
:10988000019BB3F8143401221946FFF770FE0390D0
:10989000039B002B03D0039B9DF803201A70019BB0
:1098A00003F15400019B03F58261019B3C331A468E
:1098B000FFF783FE0346184605B05DF804FB00B5CC
:1098C00085B001900091019B5A69009B9A60019BB1
:1098D0009B699AB2009B9A81019B93F82430002BDC
:1098E00004D0019B062283F83C2003E0019B012267
:1098F00083F83C200198FFF79BFF0346002B13D011
:10990000009B02221A7504210198FFF7B0FF039013
:10991000039B0293029B002B01D0029B0FE0019B53
:10992000052283F8312003E0019B032283F83120D4
:10993000019B03F58262019BC3F820240023184693
:1099400005B05DF804FB00B585B001900091019B66
:10995000DA69009B9A60019B1B6A9AB2009B9A810C
:10996000019B93F82430002B04D0019B062283F83E
:109970003C2003E0019B012283F83C200198FFF783
:1099800057FF0346002B13D0009B02221A750421B7
:109990000198FFF76CFF0390039B0293029B002B3F
:1099A00001D0029B0FE0019B062283F8312003E0E7
:1099B000019B042283F83120019B03F58262019B05
:1099C000C3F820240023184605B05DF804FB82B0DC
:1099D0000190019B9B78002B06D0019B93F82030CF
:1099E000002B01D000230AE0019B9B6A042B03D0CB
:1099F000019B5B6A042B01D1002300E00123184680
:109A000002B0704784B00190019B93F82430002B82
:109A100003D0EE23ADF80E3002E01F23ADF80E3078
:109A2000BDF80E30184604B0704782B001900B4666
:109A30008DF80330019B9DF8032083F8302000BF90
:109A400002B0704730B587B001900091009B002BA9
:109A500002D0019B002B01D10E23B8E0009B78338C
:109A60001846FFF7B4FF034683F00103DBB2002B77
:109A700001D00723ABE0019B00229A70019A009B62
:109A8000141D03F178050FCD0FC40FCD0FC495E859
:109A9000070084E80700019B002283F83020009B28
:109AA000D3F8A420019B5A63009BD3F8A820019B04
:109AB0009A63019B4FF6FF72A3F82424019B03F5E0
:109AC0008262019BC3F82024019B03F226430722F4
:109AD0000021184609F0ECFF019B1B7883F001037D
:109AE000DBB2002B03D0019BFF2283F85420019BA3
:109AF00003F15502019BC3F810240198FFF782FF80
:109B000003461A46019BA3F814240098019B03F115
:109B10005501019B03F214431A46FFF7B7FB05906A
:109B2000059B0493049B002B01D0049B4FE0019BF9
:109B300003F23122019BC3F818240198FFF762FF5A
:109B400003461A46019BA3F81C24009B03F13C002A
:109B5000019BD3F81814019B03F21C431A46FFF72C
:109B600095FB0590059B0393039B002B01D0039B62
:109B70002DE0019B012283F85120019B9B699AB241
:109B8000019BA3F84820019B012283F83C20019B04
:109B900000221A64019B002283F85020019B5A691D
:109BA000019B5A64019B03F15400019B3C331A460C
:109BB0000021FFF702FD0590059B0293029B002BFD
:109BC00001D0029B03E0019B01221A70059B1846FD
:109BD00007B030BD82B00190019B1B68012B03D000
:109BE000019B1B68022B01D1012300E000231846D2
:109BF00002B0704700B585B001900B468DF8033078
:109C0000019B1B7883F00103DBB2002B01D00823FA
:109C100009E1019B9DF803209A70019B03F2264302
:109C200007220021184609F043FF019B9B79002B76
:109C300003D0019B9B78012B0FD0019BDB79002B7C
:109C400003D0019B9B78012B07D0019BDB79002B74
:109C500014D0019B9B78022B10D1019B5B6B002BD6
:109C600008D0019B012283F82D24019B5B6B082007
:109C7000984703E0019B002283F82D249DF80330D0
:109C800019460198FFF740FD03461A46019B9A705A
:109C9000019B5B6B002B20D0019B9B78032B03D097
:109CA000019B9B78042B18D1019B5B79002B14D06E
:109CB000019B93F82E3483F00103DBB2002B0CD010
:109CC000019B002283F83024019B012283F82F247A
:109CD000019B5B6B0720984703E0019B002283F800
:109CE0002F24019B3C3318220021184609F0E0FE86
:109CF000019B012283F83C20019B2C331846FFF77F
:109D000069FF0346002B06D0019BDB6ADAB2019B98
:109D100083F8512003E0019B012283F85120019B2D
:109D200093F82430002B12D0019B28331846FFF7FC
:109D300051FF0346002B06D0019B9B6ADAB2019BC0
:109D400083F8522003E0019B012283F85220019BFB
:109D5000002283F85020019B9B78042B31D801A26C
:109D600052F823F0B99D0200799D0200899D0200FE
:109D7000999D0200A99D0200019B3C331946019860
:109D8000FFF710FD03901DE0019B3C33194601983D
:109D9000FFF725FD039015E0019B3C331946019820
:109DA000FFF78DFD03900DE0019B3C3319460198B0
:109DB000FFF7C9FD039005E0019B002283F83120E5
:109DC00000E000BF019B9B78002B20D0019B03F19A
:109DD0005400019BD3F82014019B3C331A46FFF733
:109DE000ECFB0390039B002B01D0039B1BE0019B2A
:109DF00093F85420019B93F8303019461046FFF732
:109E0000E0FB0390039B002B01D0039B0BE0019B25
:109E10005B6B002B06D0019B5B6B019A92F83120A3
:109E2000104698470023184605B05DF804FB00BFB4
:109E300000B585B001900091009B0393019B1B88A6
:109E4000262B10D0262B13DC102B02D0112B05D083
:109E50000EE001990398FFF7F3FB0AE001990398DC
:109E6000FFF7FDFB05E001990398FFF722FC00E0F6
:109E700000BF00BF05B05DF804FB00B585B00190E0
:109E8000019B93F854301846FFF79FFB019B01227A
:109E900083F82E24019B002283F83024019B0022AA
:109EA00083F8502006210198FFF7E1FC0390039B03
:109EB0000293029B002B01D0029B12E0019B9B7836
:109EC00019460198FFF796FE0390039B002B07D0DD
:109ED000019B9B6B002B03D0019B9B6B03989847C6
:109EE0000023184605B05DF804FB75DF704700BF1E
:109EF000184676DF704700BF18467ADF704700BF0C
:109F000018467BDF704700BF1846000084B0034648
:109F1000ADF806300023039316E00F49039A134669
:109F20009B0013449B000B441B88BDF806209A42FB
:109F300007D1039A13469B0013449B00064A13441F
:109F400006E0039B01330393039B002BE5D0002322
:109F5000184604B0704700BFD033002082B0019093
:109F60000B46ADF80230019BBDF802201A80019B20
:109F700000221A72019B054903F10A020B4603CB2A
:109F80001060516000BF02B0704700BF0034002075
:109F900082B00190019B4FF6FF721A8000BF02B0A1
:109FA000704788B00390029111461A460B46ADF8EF
:109FB00006301346ADF80430039B9B881A46BDF863
:109FC000063013440793039B9B881946039B9B8889
:109FD000BDF80620934228BF13469BB2CB1A0693C6
:109FE000039BDB881A46BDF8043013440593039B9A
:109FF000DB881946039BDB88BDF80420934228BF09
:10A0000013469BB2CB1A0493029B5A88039B1B886E
:10A010009A4205D3029B5A88039B5B889A4201D9D6
:10A0200000231CE0029B9B881A46069B934205D89E
:10A03000029B9B881A46079B934201D200230EE0A5
:10A04000029BDB881A46049B934205D8029BDB885F
:10A050001A46059B934201D2002300E001231846D3
:10A0600008B0704700B583B00190064B9B69002B88
:10A0700003D0044B9B690198984700BF03B05DF87B
:10A0800004FB00BFE433002000B585B00346009117
:10A09000ADF80630BDF8063000991846FFF725FFE9
:10A0A0000390039B002B05D0039B112B02D0039838
:10A0B000FFF7D8FF039B002B0CBF01230023DBB26B
:10A0C000184605B05DF804FB00B589B00190019B0E
:10A0D0000793079B9BB21846FFF718FF0690069B55
:10A0E000002B42D0069B1A7A224B1B7B9A4215D238
:10A0F000079B9AB2069B0A3319461046FFF7C4FF26
:10A1000003468DF813309DF81330002B2DD0069B9D
:10A110001B7A0133DAB2069B1A7226E0069B0022F4
:10A120001A72144B1B7C002B0FD0079B9BB23B2158
:10A130001846FFF7DEFE0590059B002B05D0059B1A
:10A14000082B02D00598FFF78DFF0A4B5B69002BA7
:10A150000BD000238DF80C30079B9BB2ADF80E306E
:10A16000044B5B6903AA1046984700BF09B05DF82D
:10A1700004FB00BFE433002030B587B00190019BA1
:10A18000002B01D10E2353E02B4A019B14461D46A0
:10A190000FCD0FC495E8070084E80700264B274A37
:10A1A0001A60019B1B68002B11D0019B1B6818468D
:10A1B000FFF7A3FE0490049B002B01D0049B37E023
:10A1C000019B1A681D4B1068516803C308E01B48C7
:10A1D000FFF797FE0490049B002B01D0049B27E01F
:10A1E0000023059320E0059A13469B0013449B002F
:10A1F000134A134403930398FFF7CAFE059B5B01C0
:10A20000104A1A44039B5A60039B04330E4A0021F0
:10A21000184605F067FA0490049B002B01D0032335
:10A2200006E0059B01330593059B002BDBD0002343
:10A23000184607B030BD00BFE433002000340020D2
:10A24000D0330020B0330020C9A0020000B587B091
:10A2500003460091ADF80630009B5B7A002B1AD1C3
:10A26000009B1B7A002B03D1164B5B68059302E021
:10A27000144B9B680593009B5B68BDF8062005990D
:10A28000184605F069FA0490049B002B16D0049838
:10A29000FFF7E8FE12E0009B00221A72094B5B698F
:10A2A000002B0BD001238DF80C30BDF80630ADF833
:10A2B0000E30044B5B6903AA1046984700BF07B0F5
:10A2C0005DF804FBE433002000B585B00190019BEC
:10A2D000DB7B8DF80F30019B9B88ADF80C309DF82F
:10A2E0000F30012B2CD14FF6FF70FFF70FFE0290BD
:10A2F000029B002B03D10420FFF7B4FE21E0BDF840
:10A300000C3019460298FFF729FE029B03F10A0060
:10A31000019B03F110014FF6FF7340F2F312FFF7B8
:10A3200040FE03461A46029B5A72074BDB89002BFC
:10A3300007D1BDF80C3002991846FFF787FF00E0FF
:10A3400000BF05B05DF804FBE433002000B587B022
:10A350000190019B9B88ADF81630BDF81630184669
:10A36000FFF7D4FD0490049B002B0ED0049B5B6888
:10A37000184605F049FA0390039B002B02D003987E
:10A38000FFF770FE0498FFF703FE00BF07B05DF80B
:10A3900004FB000000B587B00190019B06330593D4
:10A3A000059B1A88194BDB899A422BD1059B5B8947
:10A3B000022B27D1019B9B88ADF81230BDF81230DB
:10A3C0001846FFF7A3FD0390039B002B1AD0059BB3
:10A3D0000C33184600F074FA0346002B06D0BDF883
:10A3E000123003991846FFF731FF0BE0039B5B68BF
:10A3F000184605F009FA0290029B002B02D0029841
:10A40000FFF730FE00BF07B05DF804FBE433002027
:10A4100000B585B00190019B9B88ADF80E30BDF86A
:10A420000E301846FFF772FD0290029B002B15D0EC
:10A43000029B03F10A00019B03F108014FF6FF7331
:10A4400040F2F312FFF7ADFD03461A46029B5A7223
:10A45000BDF80E3002991846FFF7F8FE00BF05B0B0
:10A460005DF804FB00B583B001900091019B1B884F
:10A47000502B12D0502B18DC122B12D0122B14DCC4
:10A48000102B02D0112B04D00FE00198FFF71CFF16
:10A490000CE00198FFF75AFF08E00198FFF77AFFF8
:10A4A00004E00198FFF7B4FF00E000BF00BF03B075
:10A4B0005DF804FB30B58FB001900091002302934A
:10A4C000009B002B1AD000230D9314E06B460D99CE
:10A4D000184606F0F6F90346002B09D0029B5A1CD9
:10A4E00002920D9A92B25B000EA90B4423F82C2C19
:10A4F0000D9B01330D930D9B132BE7D9019B1D463B
:10A5000002AC0FCC0FC50FCC0FC594E8070085E84F
:10A51000070001980FB030BD00B583B00346ADF819
:10A520000630BDF80630132B01D900230CE0BDF82E
:10A5300006301946064806F093F9BDF8063019466C
:10A54000044806F08DF90123184603B05DF804FBBA
:10A55000103400200C34002000B585B00346ADF85F
:10A560000630002303930DE0039B9B00094A13442C
:10A570000433BDF806201146184606F089F9039BFE
:10A5800001330393039B1D2BEED900BF00BF05B021
:10A590005DF804FB0834002000B583B00346ADF835
:10A5A0000630BDF806301946034806F071F900BFC1
:10A5B00003B05DF804FB00BF1034002030B59BB041
:10A5C000184B9B68DB431893164B5A6818AB11461F
:10A5D000184606F0D5F9189A6B4611461846FFF74B
:10A5E00069FF0DAC6D460FCD0FC40FCD0FC495E8BC
:10A5F000070084E80700002319930BE0199B5B0018
:10A600001AAA134433F8303C1846FFF7A5FF199BEC
:10A61000013319930D9B199A9A42EFD300BF00BFE3
:10A620001BB030BD0834002000B583B001900B464C
:10A63000ADF8023013468DF801309DF80130002B43
:10A6400006D0BDF802301946019806F009F905E078
:10A65000BDF802301946019806F01AF900BF03B0A0
:10A660005DF804FB00B585B001900091019B9B88CB
:10A67000ADF80E30019B1B88103B0A2B00F288803E
:10A6800001A252F823F000BFB5A60200F1A6020015
:10A6900091A7020091A7020091A7020091A70200D2
:10A6A00091A7020091A7020091A702005BA70200F8
:10A6B000FDA60200FFF782FFBDF80E301846FFF737
:10A6C0002BFF034683F00103DBB2002B05D0324A97
:10A6D000F021042004F06CFB57E0019BDB7B022B94
:10A6E00053D1BDF80E3019462C4806F0B9F84CE0AD
:10A6F000BDF80E301846FFF74FFF49E0019B1B7A6B
:10A70000C3F30313DBB28DF80D309DF80D30032B2E
:10A710008CBF01230023DAB2BDF80E301946204861
:10A72000FFF782FF9DF80D30022B8CBF0123002321
:10A73000DAB2BDF80E3019461A48FFF775FF9DF8DA
:10A740000D30012B8CBF01230023DAB2BDF80E308F
:10A7500019461548FFF768FF1AE0019B1B7A002B8A
:10A7600015D1019B5B7AC3F3C003DBB2002B14BF8E
:10A77000012300238DF80C309DF80C20BDF80E301D
:10A7800019460748FFF750FF01E000BF00E000BF97
:10A7900000BF05B05DF804FBA8440300143400209A
:10A7A000203400201C3400201834002000B583B071
:10A7B0000346ADF80630BDF80630132B01D900234F
:10A7C00006E0BDF806301946034806F07AF803465D
:10A7D000184603B05DF804FB0C34002000B583B0CC
:10A7E0000346ADF80630BDF806301846FFF7DEFF29
:10A7F0000346002B02D0BDF8063000E014231846B3
:10A8000003B05DF804FB00B587B003900B460192DE
:10A81000ADF80A30019B002B01D10E2338E0019BDB
:10A8200000221A60039B002B01D10E2330E0039B12
:10A830001B68002B01D10E232AE0039BDB8803F069
:10A8400003039BB2002B01D0072321E0BDF80A309F
:10A850001846FFF7C3FF03468DF817309DF81730F1
:10A86000142B01D1052313E0039B1B799DF81720BE
:10A870009A4201D304230BE0039B1B689DF8172029
:10A880000399C98801FB02F21A44019B1A60002354
:10A89000184607B05DF804FB82B00190019B1B785D
:10A8A0001AB2019B01331B781B021BB213431BB26C
:10A8B0009BB2184602B07047AADF704700BF184627
:10A8C00000B585B001900198FFF7E6FF0346ADF8AB
:10A8D0000E30BDF80E3003F00103002B14BF01232E
:10A8E0000023DBB2184605B05DF804FB82B00346D6
:10A8F00000918DF80730009A13786FF303031370FB
:10A90000009A13786FF3071313709DF80730052B27
:10A910005BD801A252F823F031A9020047A9020036
:10A9200061A902007BA9020095A90200AFA902005B
:10A93000009A13786FF303031370009A13786FF380
:10A940000713137040E0009A1378012161F30303A9
:10A950001370009A1378012161F30713137033E029
:10A96000009A1378012161F303031370009A13789E
:10A97000022161F30713137026E0009A1378012176
:10A9800061F303031370009A1378032161F3071333
:10A99000137019E0009A1378022161F30303137016
:10A9A000009A1378012161F3071313700CE0009AE9
:10A9B0001378022161F303031370009A13780221C4
:10A9C00061F30713137000BF00BF00BF02B07047F0
:10A9D00000B595B0034602910192ADF80E30029B8E
:10A9E0009B78002B03D101238DF81E3003E0029BDE
:10A9F0009B788DF81E30029B1B88ADF81C3006AB8F
:10AA000003220021184609F053F8029B5B7C06AA3A
:10AA100011461846FFF76AFF029B9A7C06AB01338A
:10AA200019461046FFF762FF029BDA7B9DF81A3049
:10AA300062F3C3038DF81A30029B1A7C9DF81A301A
:10AA400062F304138DF81A30029B1A7B9DF81A30BA
:10AA500062F300038DF81A30029B1B7D002B01D09E
:10AA6000022200E001229DF81A3062F342038DF8C1
:10AA70001A300DAB1C220021184609F019F8029B70
:10AA80005B7B03F01003DBB2002B06D1029B5B7BE8
:10AA900003F02003DBB2002B24D004AB03220021FF
:10AAA000184609F005F8029BDA7C04AB013319461D
:10AAB0001046FFF71BFF9DF81030012262F30303DD
:10AAC0008DF810309DF81030012262F307138DF8D5
:10AAD00010309DF81230012262F342038DF81230DB
:10AAE00004AB1293029B5B7B8DF83430029B9B7B03
:10AAF0008DF8353008AB14220021184608F0D8FF35
:10AB000007AB089306AB0993029B9B88ADF82C30EA
:10AB1000029B9B68002B06D0029BDB88ADF8283097
:10AB2000029B9B680C93029B9B69002B4FD005AB4B
:10AB300003220021184608F0BBFF029B9B691B887B
:10AB4000ADF83C30029B9B695B88ADF83E30029BC0
:10AB50009B695B680E9305AB1193029B9B691B7B02
:10AB600005AA11461846FFF7C1FE029B9B695A7B56
:10AB700005AB013319461046FFF7B8FE029B9B69EF
:10AB80009A7A9DF8163062F3C3038DF81630029B53
:10AB90009B69DA7A9DF8163062F304138DF816304B
:10ABA000029B9B691A7A9DF8163062F300038DF8B8
:10ABB0001630029B9B699B7B002B01D0022200E098
:10ABC00001229DF8163062F342038DF81630029B85
:10ABD000DB69002B02D0029BDB69109308AA0DA948
:10ABE000BDF80E00019BFFF767FE0346184615B03F
:10ABF0005DF804FB90DF704700BF1846A5DF704783
:10AC000000BF1846B5DF704700BF184682B00190FC
:10AC1000019BF7221A80019B17225A80019B002278
:10AC20001A71019B00225A71019BFB229A71019BB0
:10AC30001B22DA7100BF02B07047000030B589B046
:10AC400003460A46ADF806301346ADF80430BDF8A9
:10AC50000430ADF81430BDF80430ADF816300023E0
:10AC6000ADF818300023ADF81A3003AB00221A609B
:10AC70009A8003AA05A9BDF806301846FFF7BAFF67
:10AC80000790079B002B39D01E4A1F4BD31ADB08B5
:10AC90001B0443F00104BDF80650079806F000FFBE
:10ACA00003462A461949204607F0DFFBBDF80C3061
:10ACB000002B03D1BDF80E30002B0ED0114A124BE1
:10ACC000D31ADB081B0443F00100BDF80C301A4610
:10ACD000BDF80E300E4907F0C8FBBDF81030002B50
:10ACE0000CD0084A084BD31ADB081B0443F00103BD
:10ACF000BDF810200749184607F0A6FB079B184629
:10AD000009B030BDBC4203006C420300EC440300B8
:10AD1000384503007845030010B586B001900091D6
:10AD2000009B9B88ADF80E30BDF80E30DB00019A19
:10AD3000134406330593019B1A79059B9A71009B76
:10AD4000DB7B012B02D0022B05D009E0019B1A8886
:10AD5000059B1A8004E0019B5A88059B1A8000BF5E
:10AD6000059B1A88059B5B889A4226D9059B1A8801
:10AD7000BDF80E3011461846FFF740FF0490049BC3
:10AD8000002B03D1059B01225A7116E0049B112B65
:10AD900003D1059B01221A710FE0114A114BD31AFE
:10ADA000DB081B0443F00104049806F079FE034617
:10ADB0001A460D49204607F047FB059B9A79059BEB
:10ADC000DB799A4208D9059B9B799AB2BDF80E307F
:10ADD00011461846FFF732FF00BF06B010BD00BF96
:10ADE000BC4203006C420300D045030000B583B0B1
:10ADF00001900091009B9B88DB00019A134406336D
:10AE00001846FFF703FF00BF03B05DF804FB00B571
:10AE100087B001900091009B9B88ADF81630009B95
:10AE20005B89ADF81430BDF81630DB00019A13448D
:10AE300006330493049B1B88BDF81420934228BF5B
:10AE400013469AB2049B5A80049B5B88172B38BF29
:10AE500017239AB2049B5A80019B1B69002B15D0C3
:10AE6000049B5B79002B11D040F67723ADF80830B6
:10AE7000BDF81630ADF80A30049B5B88ADF80C3095
:10AE8000019B1B6902AA114601989847049B002266
:10AE90005A71049B00221A7100BF07B05DF804FBD1
:10AEA00010B588B001900091009B9B88ADF81A30D6
:10AEB000009BDB88ADF81830BDF81A30DB00019A32
:10AEC000134406330593BDF81830172B38BF1723EA
:10AED000ADF81830059B1B88BDF81820934228BF99
:10AEE00013469AB2059B5A80059B00221A71059B56
:10AEF0001A88BDF81A3011461846FFF783FE0790EE
:10AF0000079B002B0FD0174A174BD31ADB081B04E3
:10AF100043F00104079806F0C3FD03461A4613499F
:10AF2000204607F091FA059B5B79002B16D1019B17
:10AF30001B69002B13D040F67723ADF80C30BDF819
:10AF40001A30ADF80E30059B5B88ADF81030019BD0
:10AF50001B6903AA11460198984700E000BF08B09A
:10AF600010BD00BFBC4203006C4203000446030056
:10AF700030B591B001900091009B04AC1D1D0FCD28
:10AF80000FC40FCD0FC495E8070084E80700BDF893
:10AF90001030ADF83E30BDF81420BDF83E30D1B2CF
:10AFA000019ADB0013440A465A73019B1B69002B6C
:10AFB00019D002AB00221A609A804DF67A23ADF8C0
:10AFC0000830BDF83E30ADF80A30BDF83E30019A89
:10AFD000DB0013445B7B8DF80C30019B1B6902AADC
:10AFE00011460198984700BF11B030BD00B587B039
:10AFF00001900091009B04330593059B1B88DB00A7
:10B00000019A134406330493059B9B888DF80F30F7
:10B01000049B9B799DF80F20934228BF13468DF81F
:10B020000E30059B1B889DF80E2092B211461846E3
:10B03000FFF704FE00BF07B05DF804FB00B585B064
:10B0400001900091019B002B01D10E231DE0019B7B
:10B05000009A1A61019BF7221A80019BF7225A80FD
:10B06000019BFB221A71002303930AE0039BDB0080
:10B07000019A134406331846FFF7C8FD039B0133BA
:10B080000393039B002BF1D00023184605B05DF815
:10B0900004FB82B001900B46ADF80230019B002BFF
:10B0A00001D10E230EE0BDF80230162B03D9BDF8F6
:10B0B0000230F72B01D9072304E0019BBDF80220E1
:10B0C0001A800023184602B07047000010B586B001
:10B0D00001900091009B0593019B9B88ADF8123075
:10B0E000BDF81230002B40F09880019B1B88552B37
:10B0F00048D0552B55DC242B32DC102B51DB103B78
:10B10000142B4ED801A252F823F000BF67B1020001
:10B1100071B10200A3B10200A3B10200A3B1020009
:10B12000A3B10200A3B10200A3B10200A3B10200C7
:10B13000A3B10200A3B10200A3B10200A3B10200B7
:10B14000A3B10200A3B10200A3B10200A3B10200A7
:10B15000A3B10200A3B1020099B102008FB10200B5
:10B160003A2B0AD01DE001990598FFF7D5FD19E0AB
:10B1700001990598FFF73AFE14E001990598FFF749
:10B1800046FE0FE001990598FFF78AFE0AE0019953
:10B190000598FFF7EDFE05E001990598FFF726FFFA
:10B1A00000E000BFBDF81230059ADB0013449B7A23
:10B1B000002B33D0BDF81230059ADB001344DA8837
:10B1C000BDF8123011461846FFF718FD0390039B97
:10B1D000002B0ED1BDF81230059ADB00134400227B
:10B1E0009A72BDF81230059ADB0013440122DA721C
:10B1F00014E0039B112B11D0094A0A4BD31ADB0828
:10B200001B0443F00104039806F04AFC03461A4667
:10B210000549204607F018F900E000BF06B010BD50
:10B22000BC4203006C420300D0450300B0DF70470E
:10B2300000BF184666DF704700BF184682B0019015
:10B240000091019B002B01D10E2316E0009B002BE7
:10B2500001D10E2311E0019B1B78DE2B01D10823C5
:10B260000BE0009B1A68019B5A60019BDE221A705A
:10B27000019B4FF6FF725A800023184602B07047B8
:10B2800082B001900B46ADF80230019B002B01D13A
:10B290000E230AE0019B1B78DE2B01D0082304E07B
:10B2A000019BBDF802205A800023184602B0704767
:10B2B00000B585B00190019B1B7A002B18D0019B33
:10B2C0005B8800211846FFF7B5FF0390039B002B16
:10B2D00003D1019B00221A720AE0039B112B03D1B8
:10B2E000019B01221A7203E0019B5B680398984757
:10B2F00000BF05B05DF804FB00B583B0019000917C
:10B30000009B1B79012B0BD1009B1A88019B5B884A
:10B310009A4205D1019B01221A720198FFF7C8FFDA
:10B3200000BF03B05DF804FB82B00190009100BF44
:10B3300002B0704700B589B001900091009B1A8857
:10B34000019B5B889A4236D1009B02330793079B8F
:10B350001B78022B31D1079B1B7A042B07D0079B4C
:10B360001B7A062B03D0079B1B7A052B27D102AB38
:10B3700000221A605A609A60DA6002238DF8083061
:10B380004FF4C073ADF80C30079B1B7A052B02D12C
:10B390000023ADF80C30009B1B8802AA114618460A
:10B3A000FFF744FF0690069B002B09D0019B5B68CA
:10B3B0000698984704E000BF02E000BF00E000BF2D
:10B3C00009B05DF804FB00B585B001900091009BC9
:10B3D000002B40D0019B002B3FD0009B0393039B8D
:10B3E0001B78DE2B3BD1019B9A88039B5B889A429A
:10B3F00002D10398FFF75CFF019B1B88512B18D0EB
:10B40000512B2EDC112B1BD0112B2ADC012B02D04F
:10B41000022B07D025E0019B043319460398FFF760
:10B420006BFF21E0019B043319460398FFF77CFF73
:10B430001AE0019B043319460398FFF77BFF13E0E2
:10B44000019B9A88039B5B889A420CD1039B4FF621
:10B45000FF725A8007E000BF06E000BF04E000BFB3
:10B4600002E000BF00E000BF05B05DF804FBA8DF0C
:10B47000704700BF1846ADDF704700BF1846AEDF0B
:10B48000704700BF184662DF704700BF184600B51E
:10B490008FB00190009100230393019B5869009B9A
:10B4A0009B8803AA1946FFF7AEF90D9005AB082259
:10B4B0000021184608F0FCFA04AB06930223ADF80D
:10B4C00014300023ADF81630009B9888019B1B892F
:10B4D00005AA1946FFF7CFFF0D900D9B002B26D133
:10B4E000019B9B69002B22D0069B1846FFF7E8F9C9
:10B4F0000346002B1BD0039B002B02D0039B012291
:10B500001A7007AB18220021184608F0D1FA02235E
:10B510008DF81C30019B0893009B9B88ADF824306C
:10B52000039B0A93019B9B6907AA1046984700BF9B
:10B530000FB05DF804FB00B58DB001900091009B49
:10B5400006330B93019B5869009B9B8803AA1946FD
:10B55000FFF759F90A9004AB18220021184608F0A9
:10B56000A7FA019B0593009B9B88ADF81830039BBD
:10B5700007930B9B1A88019B1B899A4225D10B9B31
:10B580005B89022B21D1039B002B38D00B9B0C3302
:10B590001846FFF795F90346002B06D0039B0122BE
:10B5A0001A7002238DF8103005E0039B00221A70F8
:10B5B00003238DF81030019B9B69002B1FD0019B4A
:10B5C0009B6904AA1046984719E00B9B1A88019BB7
:10B5D0009B899A4214D1019B9B69002B10D00023B8
:10B5E0008DF810300B9B0C3308930B9B5B89ADF8E7
:10B5F0002430019B9B6904AA1046984700E000BFD5
:10B6000000BF0DB05DF804FB00B58BB00190009158
:10B61000019B5869009B9B8802AA1946FFF7F3F823
:10B620000990099B002B1ED1029B1B78002B1BD07D
:10B63000019B9B69002B17D003AB182200211846F1
:10B6400008F036FA01238DF80C30019B0493009B1F
:10B650009B88ADF81430029B0693019B9B6903AA5B
:10B660001046984700E000BF0BB05DF804FB00B542
:10B6700085B001900091009B002B1ED0019B002BF8
:10B680001BD0009B0393019B1B88572B10D0572B7B
:10B6900015DC102B02D0502B05D010E00199039837
:10B6A000FFF7F5FE0CE001990398FFF744FF07E070
:10B6B00001990398FFF7A8FF02E000BF00E000BF78
:10B6C00005B05DF804FB000010B592B00190009148
:10B6D0004F4B0AAC0FCB84E80F00019B002B01D12C
:10B6E0000E2391E0009B002B01D10E238CE0009BE8
:10B6F0001A68019B9A61019A0AAB11461846FFF736
:10B70000C2FE1190119B1093109B002B01D0109B37
:10B710007AE0019B1B788DF83A300123ADF8383080
:10B72000019B9A1C0EAB19460120FFF7A0FE119059
:10B73000119B0F930F9B002B01D00F9B64E002AB7A
:10B7400020220021184608F0B3F90223ADF8083092
:10B75000019B1B788DF80A30F423ADF80C300123DF
:10B76000ADF80E3001238DF814309DF8153043F0FC
:10B7700008038DF815309DF8153043F004038DF85B
:10B78000153001238DF8193001238DF81A30019BF3
:10B790005888019B03F10C0202AB1946FFF718F918
:10B7A0001190119B002B01D0119B2DE002AB2022A8
:10B7B0000021184608F07CF90323ADF80830019BFE
:10B7C0001B788DF80A30F423ADF80C300123ADF866
:10B7D0000E3001238DF814309DF8153043F010031E
:10B7E0008DF8153001238DF8193001238DF81A30AA
:10B7F00001238DF81B30019B5888019B1A1D02AB59
:10B800001946FFF7E5F80346184612B010BD00BF11
:10B810003C46030000B58DB0039002910192ADF853
:10B820000230039B002B01D10E2342E0039B5B6996
:10B8300005AABDF802101846FEF7E5FF0B900B9B1A
:10B840000A930A9B002B01D00A9B32E0BDF802301C
:10B850004FF6FF72934202D0059B002B01D10523C6
:10B8600027E0059B1B7883F00103DBB2002B01D09E
:10B8700008231EE0019B1B88F42B01D9072318E045
:10B8800006AB10220021184608F012F9039B9B8892
:10B89000ADF81830029B0993019B089301238DF8A2
:10B8A0001A3006AABDF8023011461846FFF7E7FD28
:10B8B000034618460DB05DF804FB000082B0034655
:10B8C0008DF807309DF90730002B13DB9DF807300A
:10B8D00003F01F0209499DF907305B09012000FAB6
:10B8E00002F2203341F82320BFF34F8F00BFBFF394
:10B8F0006F8F00BF00BF02B0704700BF00E100E0E3
:10B90000044BD3F80034002B14BF01230023DBB217
:10B91000184670470000014008B507F0E7FC0346F1
:10B9200083F00103DBB2002B03D109497B20FAF736
:10B930006BFDFFF7E5FF034683F00103DBB2002B4D
:10B9400004D000F041FB034B00229A7000BF08BDF9
:10B95000544603008434002000B583B000230193D3
:10B96000184B1B78002B02D0852301931CE0154B4C
:10B9700000229A60134B00225A60124B00221A6177
:10B98000104B0022DA60104800F0E4FA019007F052
:10B99000ADFC034683F00103DBB2002B01D000F0C5
:10B9A000FFFA084B01221A70FFF7AAFF0346002B8B
:10B9B00002D0044B01229A70019B184603B05DF837
:10B9C00004FB00BF84340020A1BA020084B00190BF
:10B9D000019B1B680393039B002B03D0039B1A68F6
:10B9E000019B1A60039B184604B0704700B583B0F2
:10B9F000164B1B78002B04D1154940F21710FAF7AB
:10BA000003FD124BDB68002B04D111494FF48C70FD
:10BA1000FAF7FAFC00238DF807300DF107031846FA
:10BA200004F0E2F9094BDB68013B084AD360074B9D
:10BA3000DB68002B01D1FFF76FFF9DF80730184638
:10BA400004F0E8F900BF03B05DF804FB8434002083
:10BA50005446030000B585B003468DF807309DF8C5
:10BA60000730002B02D10C4B039301E00B4B0393E7
:10BA70000398FFF7ABFF0290029B002B06D0029BBE
:10BA80005B689DF8072010469847F1E700BF00BFAC
:10BA900005B05DF804FB00BF8C3400209434002016
:10BAA00000B583B003468DF807309DF80730002BB2
:10BAB00005D10A4B01225A700020FFF7CBFF9DF8F9
:10BAC0000730012B05D1054B01229A700120FFF7A9
:10BAD000C1FF00BF03B05DF804FB00BF8434002049
